:100000000C9438000C9455000C9455000C94550039
:100010000C9455000C9455000C9455000C9455000C
:100020000C9455000C9455000C9455000C945500FC
:100030000C9455000C9455000C9455000C945500EC
:100040000C9455000C9455000C9455000C945500DC
:100050000C9455000C9455000C9455000C945500CC
:100060000C9455000C9455000C9455000C945500BC
:1000700011241FBECFEFD4E0DEBFCDBF11E0A0E062
:10008000B1E0E6E1F5E002C005900D92A431B107C0
:10009000D9F721E0A4E1B1E001C01D92AE31B20771
:1000A000E1F70E9457000C9489020C94000080E84C
:1000B00095E20E946F0065E870E081E890E00E94A0
:1000C000CA0086E091E00E9415012FEF8FE797E0CC
:1000D000215080409040E1F700C00000F2CF9C0129
:1000E00040E050E060E070EB84E090E00E94890026
:1000F0002150310930BD29B988E18AB98EE880BD27
:1001000008955D9BFECF8CB908955F9BFECF8CB1A7
:100110000895052E97FB1EF400940E94A00057FD41
:1001200007D00E94A80007FC03D04EF40C94A00056
:1001300050954095309521953F4F4F4F5F4F089513
:1001400090958095709561957F4F8F4F9F4F089543
:10015000A1E21A2EAA1BBB1BFD010DC0AA1FBB1FCB
:10016000EE1FFF1FA217B307E407F50720F0A21B3D
:10017000B30BE40BF50B661F771F881F991F1A94AA
:1001800069F760957095809590959B01AC01BD01D4
:10019000CF0108950F931F93CF93DF93009731F40E
:1001A0006115710519F480E090E03AC08B01EC0113
:1001B0006EE070E081E090E00E944501FC01892B37
:1001C00091F380E883830115110571F0138702878D
:1001D00081E883838091140190911501892B21F48A
:1001E000F0931501E09314012097C9F0D187C087DF
:1001F0008381826083838091160190911701892BFE
:1002000071F4F0931701E093160180911801909119
:100210001901892B21F4F0931901E0931801CF0102
:10022000DF91CF911F910F9108950F931F93CF935B
:10023000DF93E0911601F0911701238121FF1BC08C
:100240008C01D0E0C0E0F80181918F01609116012E
:1002500070911701DB011896ED91FC911997882395
:1002600031F00995892B79F3DFEFCFEFECCF8AE0FE
:100270000995892B19F08FEF9FEF02C08D2F9C2FCE
:10028000DF91CF911F910F9108950F931F93CF93FB
:10029000DF93869F8001879F100D969F100D11247C
:1002A000C8010E946101EC01009729F0A80160E0FB
:1002B00070E00E948202CE01DF91CF911F910F91D9
:1002C00008950F931F93CF93DF938230910510F41D
:1002D00082E090E0E0911C01F0911D0120E030E00F
:1002E000A0E0B0E0309719F1408151810281138183
:1002F00048175907C8F08417950769F4109731F02B
:1003000012960C93129713961C9327C000931C010E
:1003100010931D0122C02115310519F04217530712
:1003200018F49A01BD01EF01DF01F801DBCF2115BF
:100330003105F9F0281B390B2430310580F48A810E
:100340009B816115710521F0FB019383828304C0B9
:1003500090931D0180931C01FE01329644C0FE0162
:10036000E20FF31F8193919322503109398328833F
:100370003AC020911A0130911B01232B41F42091A6
:1003800002013091030130931B0120931A01209147
:100390000001309101012115310541F42DB73EB71F
:1003A0004091040150910501241B350BE0911A0185
:1003B000F0911B01E217F307A0F42E1B3F0B281747
:1003C000390778F0AC014E5F5F4F2417350748F0CE
:1003D0004E0F5F1F50931B0140931A01819391931D
:1003E00002C0E0E0F0E0CF01DF91CF911F910F91CB
:1003F0000895CF93DF93009709F481C0FC013297F1
:1004000013821282A0911C01B0911D01109781F4FA
:1004100020813181820F931F20911A0130911B019D
:100420002817390751F5F0931B01E0931A0167C0B3
:10043000ED0120E030E0CE17DF0740F44A815B8118
:100440009E0141155105F1F0EA01F5CFD383C28336
:1004500040815181840F951FC817D90759F48881AD
:100460009981840F951F0296918380838A819B8155
:10047000938382832115310529F4F0931D01E093C4
:100480001C013DC0E901FB83EA8349915991C40FE6
:10049000D51FEC17FD0761F480819181840F951FB2
:1004A0000296E90199838883828193819B838A8361
:1004B000E0E0F0E012968D919C911397009719F06F
:1004C000FD01DC01F7CF8D919C9111979D012E5F6D
:1004D0003F4F820F931F20911A0130911B01281763
:1004E000390769F4309729F410921D0110921C010C
:1004F00002C013821282B0931B01A0931A01DF91F4
:10050000CF910895DC0101C06D9341505040E0F758
:060510000895F894FFCFEE
:1005160000001E01200048656C6C6F20776F726CBE
:0405260064210D003F
:00000001FF
