S00F00004279676765726E2E7372656347
S11300000C9438000C9442000C9442000C9442006E
S11300100C9442000C9442000C9442000C94420054
S11300200C9442000C9442000C9442000C94420044
S11300300C9442000C9442000C9442000C94420034
S11300400C9442000C9442000C9442000C94420024
S11300500C9442000C9442000C9442000C94420014
S11300600C9442000C9442000C9442000C94420004
S113007011241FBECFEFD4E0DEBFCDBF0E944400E9
S11300800C9454000C94000081E08ABB91E08BB383
S113009089278BBB2FEF33ED80E321503040804024
S10F00A0E1F700C00000F3CFF894FFCF9C
S9030000FC
